:020000040800F2
:1000000068050020C52E0008012E0008032E0008F8
:10001000052E0008072E0008092E00080000000029
:100020000000000000000000000000000B2E00088F
:100030000D2E0008000000000F2E0008112E0008F1
:10004000E12E0008E52E0008E92E0008ED2E00083C
:10005000F12E0008F52E0008F92E0008FD2E0008EC
:10006000012F0008052F0008092F00080D2F000898
:10007000112F0008152F0008192F00081D2F000848
:10008000212F0008252F0008232E0008292F000803
:10009000292E00082D2F0008312F0008352F0008C9
:1000A000392F00083D2F0008412F0008452F000878
:1000B000492F00084D2F0008512F0008552F000828
:1000C000592F00085D2F0008612F0008652F0008D8
:1000D000692F00086D2F0008712F0008752F000888
:1000E000792F00087D2F0008812F000870B586B099
:1000F000054600240DB9012046E005F585667078B7
:1001000018B93070284600F065FB0320707028682D
:1001100000F0A5FC83B000F039F80EBC286800F0B0
:1001200095FC2868002100F09FFC05EB4410283066
:100130000121047084814170641C00210F2CC17066
:10014000016141618161F0D30024002205EB44107C
:1001500000F50A714A700C708486CA70641C0F2CFA
:100160000A614A618A61F1D383B000F00FF80EBCD6
:10017000286800F07BFC002085F8240001207070C6
:10018000286800F057FF002006B070BD291D6846A2
:10019000202200F07BBF10B500F09FF801D10220B3
:1001A00010BD00F08FF8206800F042FF206800F0DA
:1001B00051FC8EE010B5044600F081F8000444BF05
:1001C000204600F055F900F07AF840050CD500F013
:1001D00072F84FF6FF3200F06AF8204600F02DFB6F
:1001E0000021204600F07EF800F069F8400405D5B3
:1001F00000F061F84BF6FF7200F059F800F05FF87C
:10020000800405D500F057F84DF6FF7200F04FF866
:1002100000F055F8C00417D52068B0F840104FF62C
:10022000FB721140A0F840104FF6F772B0F8401082
:100230001140A0F84010204600F01AFB00F03BF8F7
:100240004EF6FF7200F033F800F039F8000516D5CD
:10025000206800F140014FF2FF730A8842F0080263
:100260000A808A881A408A800A8842F004020A803A
:1002700000F0E2FEC0045CBF204600F0EBFA00F0A4
:100280001EF8800508D500F016F84FF6FF5200F072
:100290000EF8204600F0CDFA00F011F8C00505D5A3
:1002A00000F009F84FF6FF6200F001F810BD1140B0
:1002B000A0F8441070472068B0F8441070472068D8
:1002C00000F0BABE012084F828040121204600F085
:1002D000A0BB002084F8280410BD044694F828042C
:1002E0000128704710B5FFF7F8FF01D1022010BDBB
:1002F00000F006F884F82410206800F093FEE8E788
:10030000012084F82804704738B500F02CF80D0659
:100310004CBF283000F50A7001F07F050570C9094F
:1003200041700261C37094F82814012901D10220A0
:1003300032BD00F024F800F0A9FB76E010B500F023
:1003400012F80A064CBF283000F50A7001F07F024F
:10035000027000F00EF801D1022010BD00F00FF87D
:1003600000F0B9FCB5E7044601F07F0004EB401053
:100370007047C909417094F8281401297047012178
:1003800084F8281401462068704710B501F07F04F6
:1003900000EB441404F50A7400F01CF8627021703C
:1003A00012E001F00F0100EB4110D0F8440280B2DE
:1003B000704710B501F07F0400EB4414283400F0BE
:1003C00009F82170012262702146006800F01DFDCD
:1003D000002010BD01F07F016261A3610022E26193
:1003E000704738B50446080605D501F07F0004EBD8
:1003F0004010283003E004EB411000F50A7001239F
:10040000837001F07F050570FFF7B3FF01D1022073
:1004100032BD84F828340146206800F0ADFD25B9CE
:10042000206804F22C4100F00AFE002084F8280421
:1004300032BD10B5044608060A4605D502F07F0015
:1004400004EB4010283003E004EB411000F50A7083
:100450000023837001F07F010170D109FFF78AFF4B
:1004600001D1022010BDFFF78AFF00F0AAFD30E79E
:100470002DE9F84F04460020ADF80200ADF8000069
:1004800048F68F7A40F68F7648F60F7B1FE001889A
:100490000BEA0101018004F1280500F057F900F092
:1004A0004FF96969401868610021204600F0BAF9E7
:1004B00094F8240058B1A86948B994F82400216838
:1004C00040F08000A1F84C00002084F8240020684F
:1004D00000F144010A88ADF80220120440F10F81B6
:1004E000BDF8022012F00F0862D1BDF80220D2063A
:1004F000CDD50288ADF8002004F50A75BDF80020BE
:10050000120515D589892A7801EBC20100EB41005B
:1005100004F22C4100F005F9AA88206800F0A8FD3B
:100520002068018831400180204600F06DF9CEE757
:10053000BDF800100904CAD501883140018000F0DF
:1005400005F900F0EEF808D0AA886969206800F083
:100550008FFD6869E969081868610021204600F08C
:1005600059F92068B0F8501000EB410029693F2983
:1005700000F20C4008D34A0911F01F0F08BF521EA9
:10058000910241F4004104E04A08C90748BF521CE7
:10059000910289B201604BF68F7220680188114088
:1005A00081F4405141F4004141F0800101808EE727
:1005B00030F82810ADF8001004EB4819BDF8001011
:1005C00009044AD530F82810314020F8281009F5E0
:1005D0000A752B782068A97ADA0051B9B0F8503042
:1005E00000F097F825D0AA8869693B4600F040FDE5
:1005F0001FE030F823305B04B0F8503009D5D21832
:1006000000EB4201D1F804148F05BF0D09D0EA8830
:1006100003E000F07EF804D02A893B46696900F0C7
:1006200027FD00F06FF842F4004242F0C00221F8CA
:100630002020E9697918E96169697A186A61AB690A
:1006400013B129698F4204D22978204600F0E2F8DC
:1006500003E029782046FFF798FEBDF80000000669
:1006600049D5206830F828100BEA010109F1280566
:1006700020F828102A782368A87AD10050B9B3F856
:10068000502000F054F823D0AA886969206800F04F
:10069000DDFC1DE033F822205206B3F8502004D5CB
:1006A00000F045F80CD0EA8806E0891803EB410019
:1006B00000F037F804D02A896969206800F0C6FC88
:1006C00000F020F842F4404242F0800221F820205D
:1006D00020682978B0F8502002EBC10200EB4200FC
:1006E00000F02EF86A6982186A612046AB69002B17
:1006F00002D100F097F8EAE6FFF75BFEE7E600209C
:10070000BDE8F28F2168287831F820200AEA020239
:100710007047D21800EB4201D1F80C148F05BF0DC1
:100720007047D0F80C0483059B0DEB617047891866
:1007300003EB4100D0F8040483059B0DEB61704787
:10074000D0F804048005800DE86170472068B0F897
:1007500050102A7801EBC20100EB41007047F0B461
:10076000016844688368091801EB5402E40748BF34
:100770004B440C3091422BD011F8014B14F003057F
:1007800004BF11F8015BED1C26090F2E07D111F8EB
:10079000016B0F3603E011F8017B03F8017B6D1E3E
:1007A000F9D1002EE6D0A40811F8015B04F003048F
:1007B000032C08BF11F8014B05EB04241C1BB51CCE
:1007C000D8D014F8016B03F8016B6D1EF9D1D1E795
:1007D000F0BC704780B500688849884213D18848CA
:1007E000016841F4000101600022006800F400008B
:1007F000009000210098142000F08EFCBDE802401B
:10080000142000F0A6BC01BD00F22C41D0F85C041D
:1008100000F009BD00EB4112D0F85C04D2F83C2294
:1008200000F02CBD00EB4112D0F85C04D26B00F05C
:1008300057BDD0F85C0400F0D1BD10B504460121CD
:10084000D4F85C0400F0BBFDD4F85C04BDE81040B3
:1008500000F094BD10B50446D4F85C0400F0B2FD7D
:10086000A06920B16748016841F00601016010BD30
:10087000D0F85C0400F0ACBD10B5044662485F4996
:10088000C0F85C44C4F820020160082141600221E4
:1008900081600321C16000218161C1610162FFF7B4
:1008A00025FC28B14FF497710FF2681000F070FE2C
:1008B000D4F8200218230022002100F06AFED4F8A8
:1008C000200258230022802100F063FED4F8200289
:1008D000C0230022812100F05CFED4F820024FF4F6
:1008E00088730022012100F054FED4F820024FF456
:1008F00080730022822100F04CFE002010BD10B554
:10090000D0F82002FFF747FC002418B102280CBFE2
:1009100001240224204610BD38B51C461346D0F8E9
:1009200020022246FFF7F0FC002518B102280CBF78
:1009300001250225284632BD10B5D0F82002FFF768
:10094000FDFC002418B102280CBF0124022420461B
:1009500010BD10B5D0F82002FFF743FD002418B1F8
:1009600002280CBF01240224204610BD10B5D0F887
:100970002002FFF75EFD002418B102280CBF0124FD
:100980000224204610BDD0F8200201F07F0200EBC7
:10099000421009064CBF90F82A0090F82A027047CE
:1009A00010B5D0F82002FFF79DFC002418B10228F2
:1009B0000CBF01240224204610BD10B5D0F820023F
:1009C000FFF7F7FC002418B102280CBF0124022411
:1009D000204610BD10B5D0F82002FFF7D6FC002449
:1009E00018B102280CBF01240224204610BDD0F803
:1009F0002002FFF7D6BC054870470000005C0040AD
:100A00001C10024010ED00E0E01C002064230020D8
:100A100070477047443A5C4749544855425C4C61C2
:100A20007365724265616D50726F66696C65725C68
:100A30004669726D776172655C5372635C7573624F
:100A4000645F636F6E662E63000000000EB40020CA
:100A500003B07047B0F8401041F43F41F2E2B0F803
:100A6000401044F2FF22ECE2002070470EB400B5C3
:100A700000F1400101220A8000220A808A800A8255
:100A8000FFF7E8FF00205DF810FB00002DE9F043C0
:100A9000CA78032A48F68F1316D8DFE802F0020F4F
:100AA000070A00F013F943F400730BE000F00EF9AD
:100AB00008E000F00BF943F4C06303E000F006F92E
:100AC00043F4806320F822300C78A04630F8286088
:100AD00048F68F731E4048F280023443144320F8D6
:100AE00028404BF68F7891F80AE00D78BEF1000FA0
:100AF0004CF2800648F6BF7448F2C00761D1B1F8E5
:100B000004E091F801904FEA5E0EB9F1000F4FEA50
:100B10004E0E1AD0B0F8506006EBC50500EB450547
:100B200005F58065C5F800E091F8008030F8286090
:100B3000760605D530F8286033403B4320F828304E
:100B400000F05EF983F02003B6E0B0F8504004EB0B
:100B5000C50400EB440404F58164C4F800E0B0F877
:100B600050400F7804EBC7040F6900EB44043F2F9B
:100B700004F20C440BD34FEA571C17F01F0F08BFA9
:100B8000ACF1010C4FEA8C2747F4004707E04FEA2D
:100B9000570CFF0748BF0CF1010C4FEA8C27BFB27E
:100BA00027600C7830F824707F0405D530F8247065
:100BB0003B40334320F8243000F082F883F4405364
:100BC0007AE030F825E003EA0E0E4EF4014E4EF0C6
:100BD000800E20F825E0B0F850E00D780EEBC5054A
:100BE00000EB450505F5806ECD886D086D00CEF8EB
:100BF0000050B0F850E00D780EEBC505B1F808E0F4
:100C000000EB450505F581654FEA5E0E4FEA4E0E95
:100C1000C5F800E04D7891F800C0002D30F82C5058
:100C200026D16D0405D530F82C501D402E4320F8F8
:100C30002C600E7830F826506D0605D530F8265019
:100C40001D403D4320F826500E7830F826502B40AA
:100C50003B4320F826300B7830F8236008EA06057D
:100C600085F44055154320F8235000F0C9F823E0DF
:100C70006D0405D530F82C501D40354320F82C501C
:100C800091F800C030F82C506D0605D530F82C5086
:100C90001D402F4320F82C700F7830F827502B4040
:100CA000334320F827300B7830F823603440144366
:100CB00020F8234000F004F800F09DF8BDE8F08330
:100CC000097830F8213008EA030370470A7830F8D1
:100CD0002240234070472DE9F04191F80A800F78B7
:100CE00091F801E0B8F1000F4BF68F734CF2800CD5
:100CF00048F2800248F6BF7448F2C00648F68F7585
:100D000019D1BEF1000F0AD030F827305B063FD56D
:100D100030F827302B40334320F8273038E030F8C4
:100D2000274064045FD530F827402C404CEA040487
:100D300020F8274057E0BEF1000F30F827E02AD115
:100D40005FEA4E4E07D530F827E005EA0E0E4CEA72
:100D50000E0C20F827C00F7830F827C05FEA4C6CE3
:100D600007D530F827C005EA0C0C46EA0C0C20F831
:100D700027C00F7830F827C005EA0C05354320F866
:100D800027500D7830F825603340134320F8253084
:100D900000F036F82BE05FEA4E4E07D530F827E03A
:100DA00005EA0E0E4CEA0E0E20F827E00F7830F818
:100DB00027E05FEA4E6E07D530F827E005EA0E0E11
:100DC00046EA0E0620F827600E7830F826703D407F
:100DD0004CEA050520F826500D7830F8256034409F
:100DE000144320F82540097830F82140234000F0D2
:100DF00002F8BDE8F0811A4320F821200020704756
:100E0000097830F8213023407047F8B50D46044684
:100E10006B78A8692969012B064648F2800740D102
:100E200081423ABF0E46801B0020A861A87A28B9EB
:100E3000AA8800F08AF800F095F829E02878C10027
:100E400034F820004006B4F8500003D500F077F8DD
:100E50002A8902E000F073F8EA8800F076F86878F2
:100E600048F68F7140B9287834F82020114041F4B9
:100E7000004141F0C00109E0012809D1287834F887
:100E80002020114041F4404141F0800124F820101D
:100E9000287834F8201048F6BF72114081F03001F4
:100EA00048E081423ABF0E46801B0020A8617008CE
:100EB000A97A06F00102E1B1CBB900F04AF803F2D9
:100EC00004430CD34FEA561C16F01F0F08BFACF1B9
:100ED000010C4FEA8C2141F4004189B206E08446BE
:100EE0000AB10CF1010C4FEA8C61090C19606B78A6
:100EF000A3B900F02EF803F20C4309D3700916F0E1
:100F00001F0F08BF401E800240F4004080B203E083
:100F100002B1401C8006000C186003E0012B01D1D7
:100F200000F020F84BF68F72287834F8201011402A
:100F300081F44051394324F820100020F2BD0818F4
:100F400004EB4000C0F8046470476969B3B22046FE
:100F50007CE0B4F85030297803EBC10304EB430381
:100F60003F2E7047B4F85000297800EBC10004EB25
:100F70004000C0F80464704710B50B7848F2800256
:100F800053B901884BF6BF73194081F4805181F049
:100F900010011143018012E04978002930F8231034
:100FA00005D048F6BF74214081F0100104E04BF6F3
:100FB0008F74214081F48051114320F823100020C8
:100FC00010BD30B54D780B78002D30F8235048F225
:100FD000800248F68F7411D06D0608D530F8235082
:100FE0002C4044F4004444F0C00420F8234048F668
:100FF000BF74FFF705FF83F0300310E06D0408D5E0
:1010000030F823502C4044F4404444F0800420F84D
:1010100023404BF68F74FFF7F3FE83F44053FFF742
:10102000EAFE30BD11B98021A0F84C1000207047B5
:101030000020704700207047B0F84400704700203F
:1010400070471140A0F840100020704710B500EB29
:1010500042005A1C00F58060521007E00B784C7873
:1010600043EA0423891C20F8043B521EF6D110BD2C
:1010700000EB42005A1C00F58060521004E050F86A
:10108000043B21F8023B521EF9D17047103A07D3B6
:1010900030B4B1E83810103AA0E83810F9D230BCBA
:1010A000530724BFB1E80810A0E8081044BF51F866
:1010B000043B40F8043BD20724BF31F8022B20F850
:1010C000022B44BF0B7803707047083A07D3B1E88E
:1010D0000810083A40F8043B40F804CBF7D2530715
:1010E000E4E700000901002806D52E4A00F00F00B1
:1010F000801800F8041C70472B4A815470472B4914
:101100000A684FF6FF031A4000F0070042EA002089
:10111000274A10430860704738B5244B1B68C3F357
:101120000223C3F10704052C28BF04241D1D072D2D
:1011300034BF0023DB1E012505FA04F4641E2140A0
:10114000994005FA03F35B1E1A401143BDE8344091
:10115000C8E7012100F01F029140164AFFE740094D
:1011600042F82010704710B5401EB0F1807F01D3C7
:10117000012010BD104C60600F214FF0FF30FFF7D1
:10118000B1FF0020A06007202060002010BD0A49A8
:10119000042808680CBF40F0040020F00400086038
:1011A0007047000018ED00E000E400E00CED00E006
:1011B0000000FA0500E100E010E000E080B500F07A
:1011C00001F801BD704710B508B9022010BD00F547
:1011D000FE739C690CB100249C6101B1596101212D
:1011E00019700270FFF748FB002010BD0022002993
:1011F00014BFC0F8141202221046704780B5FFF7E2
:101200007EFB002002BD10B5D0F8142202241AB1D2
:101210001268904700B90024204610BD80B5D0F870
:1012200014225268E7E038B5044604F502752846F2
:1012300000F060FB04F5FA7001210160418B416010
:10124000007D10F01F0103D002290BD005D30EE062
:101250002946204600F0B6F90EE02946204600F067
:101260004FFA09E02946204600F063FA04E000F056
:1012700080012046FFF76DFB002032BD38B50446E3
:10128000104604F5FA7301BB1A68032A04F582714B
:1012900024D18D68CA68AA420AD2AB1A8B609342E5
:1012A00038BF1A46014692B2204600F07EFB15E098
:1012B000186A0169080004D0187A032804BF204680
:1012C0008847204600F079FB08E0186A8269100020
:1012D00004D0187A032804BF20469047002032BD6E
:1012E00038B505460029104605F5FA743BD1226849
:1012F000022A05F1140130D18A68CB68934207D2E3
:10130000D21A8A60014692B2284600F03DFB11E0F5
:101310004868B0FBF3F103FB110191B9984210D377
:10132000616888420DD200220021284600F02CFB83
:10133000002060600023002200212846FFF74AFBBE
:101340000BE0206AC168080004D0207A032804BF9B
:1013500028468847284600F037FB207B01280BD120
:101360000020207308E0206A4269100004D0207A2F
:10137000032804BF28469047002032BD10B504461C
:10138000402300220021FFF7C7FA4020C4F81001D3
:101390004023002280212046FFF7BEFA201D402175
:1013A000C16104F5FE7201211170D16929B1926900
:1013B00001685268C9B220469047002010BD0174F0
:1013C0000020704700F5FE7001784170042102E0B2
:1013D00000F5FE70417801700020704780B500F57F
:1013E000FE710A78032A04D18969C9690A0018BF05
:1013F0008847002002BD9047002002BD70B588B02C
:1014000000F0EAFA00F07EF800F08BFB3848394E25
:101410000168394C41F0100101600022016801F0BF
:101420001001009140F603050099016841F0200188
:101430000160016801F0200100910099016841F00C
:1014400004010160016801F0040100910099016844
:1014500041F0080101604FF40051006800F00800FD
:1014600000900098304600F045FC002229462046B6
:1014700000F040FC4FF40050019001A901200290BF
:101480000020039002200490304600F079FB0120F8
:10149000029001950020039001A9022004902046AB
:1014A00000F06EFB00F044FC144C15482060002056
:1014B000A060E06060614FF46020E0610020606047
:1014C00001202061204600F04FFC00B1FEE70590AE
:1014D00005A90120069000200790204600F0B0FDED
:1014E00000B1FEE700F092FE00F0F7FEFCE700001E
:1014F0001810024000100140000C01408427002019
:101500000024014000B593B00120099000210B9107
:101510004FF480300A90012111900D914FF4E010AA
:1015200002211290109109A800F07EFF00B1FEE7A1
:101530000F200490022102200590002006904FF415
:10154000806007900020089004A801F0DAF800B14C
:10155000FEE7122000904FF400400290002003901C
:10156000684601F0A5F900B1FEE701F080F94FF4FB
:101570007A71B0FBF1F0FFF7F6FD0420FFF707FEEC
:10158000002200214FF0FF30FFF7C6FD13B000BD71
:10159000FEE710B50C0605D501F07F0100EB411008
:1015A000283003E000EB411000F50A701AB9002161
:1015B0008172838004E001218172C380190C018152
:1015C000002010BD2DE9F0410D46804668780928BD
:1015D00008F1040608F5FE7747D8DFE800F0687CDC
:1015E0004678460905465723404600F009F982E04F
:1015F000A888002804BFE888002836D1A87800F021
:101600007F063878032830D0BE7031464046FFF759
:10161000C7F9404600F0D1F9002E14BF0220012086
:10162000387068E0354C68882070207802281CDA11
:10163000397802291ED0032917D140B90220387009
:101640000021002030604046FFF7E8FD50E031689F
:1016500088424DD0C9B24046FFF7E0FD21783160A5
:101660004046FFF7D0FD022842D12946404600F00F
:1016700055F940E000283BD0306003213970014625
:101680004046FFF7C0FD0228EFD031E0E88801288E
:10169000EBD13878022804D00328E6D10122314664
:1016A00011E000207060012208F108010BE0387899
:1016B000801E0128D9D8B968012001B10320B0608B
:1016C000022208F10C01404600F055F913E0688849
:1016D000012810D107E03878801E0128C5D8688815
:1016E000012808D10020BA69B86040469268904746
:1016F000404600F062F90020BDE8F081C9270020D3
:1017000038B5044604F5FE720D46107803280CD156
:101710002879022809DA9269926820469047E88879
:1017200028B9204600F049F901E000F0E1F8002076
:1017300032BD70B50D4604462878297900F0600066
:10174000202804F5FE7602D100F054F850E06A78C3
:1017500001F07F0052B3012A13D0032A48D1307818
:10176000022802D0032803D040E0002940D00FE037
:10177000688828B900291EBF80292046FFF7E9F8AC
:101780000EE03278022A02D0032A03D02EE079B389
:10179000802912E06A885ABB20B12046FFF7E6F89C
:1017A00000F028F8204600F008F921E03278022AFB
:1017B00002D0032A06D019E0002819D02046FFF7EE
:1017C000C8F815E004EB00100A064CBF00F1140540
:1017D00000F582752046FFF7D6F800B10120286099
:1017E00002222946204600F0C6F801E000F07FF80A
:1017F000002070BDB269926829462046104700005B
:1018000038B50D4604466988080A012804F50472B3
:1018100008D0022820D003282BD0062855D007282E
:101820005AD061E01268207C126869469047BDF882
:10183000001000291CBFE98800290CD0BDF8002049
:101840008A4288BF0A46ADF800200146BDF8002054
:10185000204600F090F831BD207C51680028684691
:1018600004D1896A884702214170E0E7C96A884744
:10187000F9E7C9B2052937D8DFE801F003090F15E8
:101880001B211268207C526869469047CFE7126896
:10189000207C926869469047C9E71268207CD2682C
:1018A00069469047C3E71268207C126969469047F1
:1018B000BDE71268207C526969469047B7E7126815
:1018C000207C926969469047B1E7207C60B95168F5
:1018D000496B68468847AAE7207C28B95168096B9C
:1018E000684688470721BFE700F001F831BD294667
:1018F000204613E00A7802704A784270CB788A78E2
:1019000002EB032242804B790A7902EB03228280A8
:101910008A79C97902EB0121C180704710B504466C
:101920008021FFF716F82046BDE810400021FFF7A0
:1019300010B800B9704730B50346002400E0641CBD
:1019400013F8015B002DFAD12406E30D9B1C1380D4
:1019500012880A7003224A70022208E010F8013B44
:10196000D2B25354521CD2B200235354521C0378A7
:10197000002BF3D130BD80B50223C0F8F43100F163
:1019800018031A605A6000E080B513460A46002129
:10199000FFF713F8002002BD80B50323C0F8F4312F
:1019A00000F584731A605A6000E080B513460A4659
:1019B0000021FFF70FF8002002BD80B50421C0F818
:1019C000F41100230022E2E780B50521C0F8F411EC
:1019D00000230022ECE7000080B52248016841F0B6
:1019E000100101600320FFF78AFB002000F004F8DB
:1019F00000F0D2FF002002BD38B51B4D2978044607
:101A00004FF47A70B0FBF1F018490968B1FBF0F0BF
:101A1000FFF7A9FB50B9102C08D2002221464FF045
:101A2000FF30FFF779FBAC60002032BD012032BDF2
:101A30000D48416802785118416070470A48406873
:101A4000704738B50446FFF7F9FF14F1010F05465A
:101A500002D0054800780419FFF7F0FF401BA042B0
:101A6000FAD331BD00200240000000200C0000200D
:101A700038B53F4C3F4D002205F57B71204601F003
:101A8000E0F8291D204601F0E4F80120287000202C
:101A900032BD002070470020704770B504460D46E7
:101AA000334E2146304601F0D4F8296889B22046E9
:101AB00000F060FC304601F0E8F8002070BD70B521
:101AC00004460D46002608E04FF4007100F00CF8C3
:101AD00006F50076B6B2A5F500753019B5F5007FAC
:101AE000F2DCA9B2BDE87040224A127802B9704710
:101AF00038B581B11E4CD4F81852D5F81422002AFA
:101B0000FBD100F009F8204601F0A9F818B9D5F882
:101B100014020028FBD131BD0A460146204601F0DF
:101B200090B810B51448154C86B0016841F0040116
:101B3000016001A9006800F00400009000984FF4D3
:101B40008050019011200290002003900220049008
:101B5000204600F015F800224FF48051204600F096
:101B6000C9F84FF47A70FFF76CFF06B010BD0000A3
:101B7000402100200C1500201810024000080140F0
:101B80002DE9F8474FF0000E00225C4BDFF8708122
:101B9000DFF870914FF00F0A012707FA02F60F687D
:101BA0003740B74240F0A0804C685CB3012C1AD09B
:101BB000022C1FD0032C31D0112C17D0122C1DD089
:101BC000514DAC421CBF514DAC421BD0504DAC42AC
:101BD0001CBF504DAC4215D04F4DAC421CBF4F4DB9
:101BE000AC420FD01CE0D1F80CE019E0CC6804F155
:101BF000040E15E0CC6804F1080E11E0CC6804F185
:101C00000C0E0DE08C6814B94FF0040E08E0012CA6
:101C10004FF0080E14BF4661066101E04FF0000E60
:101C2000FF2F02D88446940004E0A2F1080400F1DA
:101C3000040CA400DCF800500AFA04F6B5430EFACE
:101C400004F42C43CCF800404C68E4004CD5D9F89F
:101C5000004044F00104C9F800404FEA920CD9F862
:101C6000005005F001040094009C58F82C5002F03C
:101C70000304A4000AFA04F6B543294EB04208BF93
:101C800000260ED0274EB04208BF012609D0264EAE
:101C9000B04208BF022604D0244EB0420CBF032637
:101CA000042606FA04F42C4348F82C40FD434C6803
:101CB000E4031C684CBF3C432C401C604C68A403EC
:101CC0005C684CBF3C432C405C604C68E4029C6800
:101CD0004CBF3C432C409C604C68A40247BFDC686E
:101CE0002743DF682F40DF60521C102AFFF454AFF7
:101CF000BDE8F18702B909040161704700040140A1
:101D000008000140181002400000111000001210DD
:101D100000002110000022100000311000003210DD
:101D200000080140000C0140001001400014014077
:101D300010B5094C094900222046FFF744FA08492A
:101D40002046FFF753FA0749204600F073FF20466C
:101D5000BDE81040FFF752BA4021002030010020BA
:101D60001C00002020010020F8B5044600270025B3
:101D7000002C71D004F12406706820B9B060307076
:101D8000204600F052FE204600F01EFA7168C90697
:101D90005ED400285CD1716821F4885141F00201C1
:101DA0007160E3696168E2681943A368B3F5807FF5
:101DB00014BF012B4FF480776369012B41EA420184
:101DC0000FD132B9A269521E520342F40062174386
:101DD00007E0726842F020027260B26842F00102CD
:101DE000B2602268536823F469433B43536022681E
:101DF000DFF8B07393683B400B439360A268B2F581
:101E0000807F18BF012A02D12269521E150522685F
:101E1000D36A23F470032B43D3622268DFF888333C
:101E200092681A408A4208D10021B160716821F09D
:101E3000020141F001017160F2BD706820F0020002
:101E400040F010007060B06840F00100B06003E046
:101E5000706840F0100070600120F2BD70B500F0B5
:101E600057F801D1022070BD00F043F800281ED1C0
:101E70006968DFF83C2300F040F80DD10E6816F4D5
:101E8000702F09D000F01CF800F028F846BFAB68AE
:101E900023F00603002302E000F00CF8F4E700F062
:101EA00015F823685D6845F020055D6036E0002187
:101EB000297070BD6E6826F480166E605B6870478E
:101EC0006B6843F480136B600B687047AB60002352
:101ED0002B706FF0020325682B6070475B0505D5FA
:101EE0006B6823F4005343F480536B606B68DB042E
:101EF00070470120287020461FE1114041F4807195
:101F000069602368DFF8AC22DFF8AC1293427047B7
:101F1000044604F1240528780128704723689C684A
:101F200004F46024B4F5602F09D1934203D1096809
:101F300011F4702F03D1996841F4A00102E099686F
:101F400041F48011996070BD0068C06C704710B595
:101F5000044620684168890622D5016889071FD593
:101F6000A16AC90603D4A16A41F40071A16200F01C
:101F70005AF804BFE16800290BD1416821F0200123
:101F80004160A06A20F48070A062A06AC00400F0E2
:101F900050F8204600F01CFA21686FF0120008602B
:101FA0002068416809062BD50168490728D5A16A30
:101FB000C90603D4A16A41F40051A162816801F409
:101FC000E041B1F5E04F08D04168490511D400F077
:101FD0002AF804BFE16800290BD1416821F0800193
:101FE0004160A06A20F48050A062A06AC00500F0A1
:101FF00020F8204600F05CFE21686FF00C000860BD
:102000002068416849060DD50068C0070AD5A06A56
:1020100040F48030A062204600F011F821686FF093
:102020000100086010BD816801F46021B1F5602FE6
:10203000704703D4A06A40F00100A0627047704767
:10204000F8B50A46002100F1240300911C78012C08
:1020500001D10220F2BD01241C701F2657681468AC
:102060000568072F08D27F1E07EB8707D5F834C015
:1020700000F05DF86C6312E00D2F08D2FF1F07EB34
:102080008707D5F830C000F052F82C6307E00D3F09
:1020900007EB8707D5F82CC000F049F8EC6207275A
:1020A0001668956804680A2E08D30A3E06EB4606B1
:1020B000D4F80CC000F035F8E56006E006EB460603
:1020C000D4F810C000F02DF825611468102C18BF4A
:1020D000112C22D10068394CA04219D1384804682B
:1020E00024021AD4046844F4000404601068102820
:1020F00013D12E48334A0068B0FBF2F00A22504355
:102100000090009800281CBF0098401EF8D104E001
:10211000586840F0200058600121002018700846DF
:10212000F2BDB7402CEA0707B5403D437047BE40BB
:102130002CEA0606BC403443704738B504460020FC
:10214000009020688168C90729D4816841F00101A5
:10215000816016481B490068B0FBF1F001E000986F
:10216000401E009000980028F9D1FFF767FC054653
:1021700020688068C00712D4FFF760FC401B03286A
:10218000F6D304F12400416841F0100141608168F8
:1021900041F00101816000210170012032BD002069
:1021A00032BD0000FDF7E1FFFE0E1FFF0C00002016
:1021B000FEF1FFFF002801400424014000240140FB
:1021C0000824014040420F0038B504462068816869
:1021D000C90719D58168490849008160FFF72EFCBD
:1021E000054620688068C0070ED5FFF727FC401B16
:1021F0000328F6D3A06A40F01000A062E06A40F025
:102200000100E062012032BD002032BD80484BF663
:10221000AA3101804DF6CC51418000210A2200EB09
:1022200041034A43491CB1F5FA6F9A80F6DB7047C7
:1022300070B5784CE068A168774D461A310048BF08
:102240004942764841B300224FF40051FFF752FD56
:1022500000224FF400612846FFF74CFD207890F0F3
:102260000100207013D0012E0ADBA078022808BFDD
:1022700000F0C5F8002000F074F8A068401C04E0ED
:10228000012000F06EF8A068401EA06001E000F0A0
:1022900010F82278012107E001224FF40051FFF7E6
:1022A00029FD01224FF400612846BDE87040FFF788
:1022B00021BD5848817802290ED18168B1F5FA6FA5
:1022C0000AD20279012A07D100693222B0FBF2F06A
:1022D0004F4A02EB41018880704710B54D4C607841
:1022E00030B10020607040F6A4714948FFF7E7FB69
:1022F000607918B10020607100F01CF8A178A06826
:10230000012904D0022908D0042910D010BD80B9B9
:102310000220A0704FF4FA6007E0B0F5FA6F08D120
:102320000420A070012060700020E06010BD00B9A2
:10233000A07010BD38B50024354D00F060F8354868
:1023400001790029FCD001693222B1FBF2F105EBE1
:102350004402641CB4F5FA6F9180EEDB01214170F8
:1023600031BD00282C4B14BF012200220221184647
:10237000FFF7C0BC01292AD10078264943281FD085
:102380004C280FD04D2819D04F2808D052280BD0F8
:10239000532810D0542816D05A2808D070474FF42C
:1023A000FA600EE01E480CE04CF2503009E00020CC
:1023B000C8608860704701204870704701208870AD
:1023C0000020C86070470020887001204871704765
:1023D00010B50446FFF7B8FD0E49CA78312A0BDA6A
:1023E0000A6980B280180861C878401CC87020460D
:1023F000BDE81040FFF732BD0120087110BD05484F
:102400000021C170016101710648FFF727BD00007E
:1024100068050020B4270020000C01400010014096
:10242000B03CFFFF842700202DE9F8430446DFF885
:1024300044542078C00747D5686800F00C00042891
:1024400007D0686800F00C0008280AD16868C0034B
:1024500007D52868800337D56068002834D101206B
:1024600049E16068B0F5803F09D008B928680AE002
:10247000B0F5A02F286806D140F480202860286895
:1024800040F4803005E020F480302860286820F493
:1024900080202860606858B1FFF7D0FA07462868A6
:1024A000800311D4FFF7CAFAC01B6528F7D31FE1D8
:1024B000FFF7C4FA07462868800305D5FFF7BEFA80
:1024C000C01B6528F7D313E12078DFF8B4638007D9
:1024D00018D5686810F00C0F07D0686800F00C0081
:1024E000082825D16868C00322D42868800702D54F
:1024F00020690128B3D12868616920F0F80040EA1A
:10250000C1002860207800073ED5A169DFF8740378
:10251000002965D001210160FFF790FA0746686A3B
:10252000800722D4FFF78AFAC01B0328F7D3DFE025
:10253000206968B101203060FFF780FA07462868FB
:102540008007D8D4FFF77AFAC01B0328F7D3CFE06F
:102550003060FFF773FA074628688007D2D5FFF787
:102560006DFAC01B0328F7D3C2E0DFF80C03006844
:10257000C0084FF47A71B0FBF1F0009000BF0098F2
:10258000411E00280091F9D1207840076FD5E869F5
:10259000C0004FF000080AD4E86940F08050E861BC
:1025A0004FF00108E86900F0805000900098DFF8D3
:1025B000D892D9F80000C0051FD4D9F8000040F423
:1025C0008070C9F80000FFF739FA0746D9F8000013
:1025D000C00512D4FFF732FAC01B6528F6D387E096
:1025E0000160FFF72BFA0746686A8007CCD5FFF732
:1025F00025FAC01B0328F7D37AE0E068012808D049
:1026000008B9286A09E00528286A06D140F00400C4
:102610002862286A40F0010005E040084000286276
:10262000286A20F00400286241F28939E06858B134
:10263000FFF704FA0746286A800711D4FFF7FEF96E
:10264000C01B4845F7D353E0FFF7F8F90746286A5F
:10265000800705D5FFF7F2F9C01B4845F7D347E0DF
:10266000B8F1000F03D0E86920F08050E861E0691C
:1026700000283FD0696801F00C0108293FF4EFAE53
:1026800002282AD100F039F807462868800105D5CC
:10269000FFF7D4F9C01B0328F7D329E0206AB0F56F
:1026A000803F05D16868A16820F400300843686065
:1026B0006868216A20F474100843616A08436860FE
:1026C000012000F01BF807462868800112D4FFF7AC
:1026D000B5F9C01B0328F7D30AE000F00EF807464F
:1026E0002868800106D5FFF7A9F9C01B0328F7D396
:1026F000032000E00020BDE8F28300203066FFF7F1
:102700009DB92DE9F843614E04463068884600F0D3
:102710000700404502D200F079F852D12078554F99
:10272000800705D57868A16820F0F000084378603C
:102730002078C0073DD56068012802D13968890337
:1027400003E00228396802D1890102D439E08907FF
:1027500037D57968890840EA8100786041F2893983
:10276000FFF76CF90546606801280AD1786800F027
:102770000C0004281DD0FFF761F9401B4845F5D334
:1027800015E002280AD1786800F00C00082810D063
:10279000FFF754F9401B4845F5D308E0786810F07E
:1027A0000C0F06D0FFF74AF9401B4845F6D303202B
:1027B0002AE0306800F00700804504D200F026F8D7
:1027C00001D0012020E02078400705D57868E16835
:1027D00020F4E060084378602078000706D5786828
:1027E000216920F4605040EAC100786000F018F8D8
:1027F0007A682749C2F30312515CC8401E49086039
:102800000020FFF7F9F80020BDE8F2833068C00827
:1028100048EAC0003060306800F00700404570476B
:1028200010B586B001A80FF274011022FEF72EFC3D
:102830000FF2780017490088ADF800000A680F48C9
:1028400002F00C03082B10D101ABC2F38344D20376
:10285000E35C08D509686A46C1F340415843895C86
:10286000B0FBF1F001E00C48584306B010BD02483F
:1028700000687047001002400C00002000127A002F
:1028800000004242800442420070004000200240AA
:10289000B02D00080410024000093D0002030405A9
:1028A000060708090A0B0C0D0E0F1010010200009C
:1028B0002DE9F041044682B02078344DC00750D550
:1028C000A8690026C00009D4A86940F08050A8611A
:1028D0000126A86900F08050009000982C4F3868BD
:1028E000C00510D4386840F480703860FFF7A6F84F
:1028F00080463868C00506D4FFF7A0F8A0EB0800B2
:102900006528F6D320E0E86910F440701EBF6168C6
:1029100001F44071884219D01E49E86901220A6019
:1029200020F4407000220A60E861C0070ED5FFF76E
:1029300085F80746E869800708D4FFF77FF8C01BD1
:1029400041F289318842F5D303201DE0E8696168CE
:1029500020F440700843E8611EB1A86920F080505F
:10296000A8612078800705D52868A16820F4404038
:10297000084328602078C00605D52868E16820F45F
:102980008000084328600020BDE8F6810410024062
:10299000007000404004424280B53548016841F073
:1029A00001010160016801F0010100910099416895
:1029B00041F080514160406800F0805000900098E4
:1029C0000320FEF79CFB002200216FF00B00FEF7B6
:1029D000A3FB002200216FF00A00FEF79DFB0022FE
:1029E00000216FF00900FEF797FB002200216FF035
:1029F0000400FEF791FB002200216FF00300FEF7B8
:102A00008BFB002200216FF00100FEF785FB002206
:102A100000214FF0FF30FEF77FFB1648016821F0E0
:102A2000E06141F00071016001BD00681249884217
:102A300000D0704700B50E4885B0016841F40071C0
:102A4000016001A9006800F4007000900098012066
:102A50000190032002900948FFF792F8002200211C
:102A60001220FEF759FB1220FEF773FB05B000BDE4
:102A700018100240040001400024014000080140F9
:102A800070B505460024287C30B94FF4007300F07F
:102A900031F84FF4007303E0402300F02BF840239B
:102AA000022201212846FDF737FF08230322822155
:102AB0002846FDF731FF4FF40770FDF79CFF060035
:102AC00005F50670066008BF012411D04068006853
:102AD000804706F50170046144610268287C002883
:102AE0000CBF4FF40073402301212846FDF772FF0D
:102AF000204670BD022281212846FDF70DBF10B58A
:102B000004468121FDF718FF01212046FDF714FF3F
:102B100082212046FDF710FF04F50674206838B1C5
:102B20006068406880472068FDF772FF00202060E1
:102B3000002010BD70B50D46044604F506732978D3
:102B40001E6811F060001ED0202824D1EA88A2B1AE
:102B50006878090606D55B689B6831469847EA881D
:102B6000314615E006F500710870E8884870314676
:102B7000EA882046FEF710FF0DE05B6868789B68E6
:102B80002946984707E068780A2804D10122244999
:102B90002046FEF7F0FE002070BDD0F81802002895
:102BA0001DBF0021C0F8141200200220704770B52C
:102BB00000F50674256805F50176FDF718FFB0608D
:102BC000206838B162683068D26805F503719047B3
:102BD000002070BD022070BD10B500F5067043687E
:102BE0000168002B1EBF01F500742078FF2804D077
:102BF00062789B689847FF202070002010BD432119
:102C000001800848704743210180074870474321ED
:102C10000180064870470A2101800548704700007E
:102C2000C82700209800002054000020DC0000206D
:102C300010000020022211B1C0F81C120022104620
:102C40007047D0F8180200F5027001608260002021
:102C50007047D0F81802C0F804120020704780B501
:102C6000D0F8181279B101F50271CA684AB9012287
:102C7000CA608B680A689BB28121FDF79EFE002026
:102C800002BD012002BD022002BD80B5D0F818129D
:102C900061B1D1F80422017C00290CBF4FF400730C
:102CA00040230121FDF796FE002002BD022002BD57
:102CB00070470000122008801148704704200880E7
:102CC0001048704710B5104C0FF2400003E010B5EB
:102CD0000D4C0FF250000A462146FEF72AFE204610
:102CE00010BD10B5084C0FF25000F4E710B5064CBB
:102CF0000FF25400EFE710B5034C0FF25800EAE76B
:102D00004C010020600100208425002053544D33E5
:102D100032205669727475616C20436F6D506F720A
:102D20007400000053544D6963726F656C65637481
:102D3000726F6E6963730000303030303030303085
:102D4000303031410000000043444320436F6E6641
:102D50006967000043444320496E7465726661638D
:102D6000650000000E480F4A016841F00101016052
:102D70004168114041600C4A0168114001600168DE
:102D800021F480210160416821F4FE0141604FF48B
:102D90001F0181604FF00060044908607047000027
:102DA000001002400000FFF8FFFFF6FE08ED00E013
:102DB00000000000000000000102030406070809EB
:102DC00019E050F8041BCB0744BFA9F101035918BF
:102DD000121F0023042A41F8043BF9D25FEA827CE7
:102DE0000B4604D54FF0000CA1F800C09B1CD10786
:102DF00044BF0021197050F8042B002AE1D170471C
:102E00007047FEE7FEE7FEE7FEE770477047704752
:102E100080B5FEF70DFEFEF7D1F9BDE80140FFF7E2
:102E200007BA0348FFF793B80248FDF7C3B900009B
:102E300084270020E01C002010B507497944183190
:102E4000064C7C44163404E00A68081D5118884773
:102E50000146A142F8D110BD080000002400000086
:102E600061FFFFFF642200006805002000000000F1
:102E7000EFD8FFFF100100009E01000000000020BD
:102E800000F00BF8002801D0FFF7D6FF0020C04665
:102E9000C046FEF7B3FA00F002F80120704700F0D8
:102EA00001B800000746384600F002F8FBE70000D2
:102EB00080B5C046C046024A11001820ABBEFBE7F1
:102EC000260002000148804701480047652D0008A0
:102ED000D52E0008C046C046C046C046FFF7D0FF0A
:102EE000FFF7FEBFFFF7FEBFFFF7FEBFFFF7FEBF16
:102EF000FFF7FEBFFFF7FEBFFFF7FEBFFFF7FEBF06
:102F0000FFF7FEBFFFF7FEBFFFF7FEBFFFF7FEBFF5
:102F1000FFF7FEBFFFF7FEBFFFF7FEBFFFF7FEBFE5
:102F2000FFF7FEBFFFF7FEBFFFF7FEBFFFF7FEBFD5
:102F3000FFF7FEBFFFF7FEBFFFF7FEBFFFF7FEBFC5
:102F4000FFF7FEBFFFF7FEBFFFF7FEBFFFF7FEBFB5
:102F5000FFF7FEBFFFF7FEBFFFF7FEBFFFF7FEBFA5
:102F6000FFF7FEBFFFF7FEBFFFF7FEBFFFF7FEBF95
:102F7000FFF7FEBFFFF7FEBFFFF7FEBFFFF7FEBF85
:102F8000FFF7FEBF430100012210081005A24A040A
:102F90000A0600020B2240181003812A0008FF04D1
:102FA0002002352B00081F12D908129B0452AF10C3
:102FB000610113072C281114120F08121704100DA9
:102FC00009024300020100C0320904000001020BA3
:102FD000101E052400100105240100010424020232
:102FE00005240600010705820308001009040100FA
:102FF000020A4E1002070501027B20010705810726
:10300000F2280044224007228107200100090744DA
:10301000F2130444F207FF441003711A00089304EA
:10302000129704129B0412B5E012BD0412CF0412D1
:10303000C50412E30412ED0412F704121243100641
:10304000020200408304405779170203450002043E
:033050000309046D
:0400000508002ED5EC
:00000001FF
